:0200000460009A
:100000004643464200000156000000000101020084
:1000100000000000000000000000000000000000E0
:1000200000000000000000000000000000000000D0
:1000300000000000000000000000000000000000C0
:1000400000000000010403000000000000000000A8
:100050000000800000000000000000000000000020
:100060000000000000000000000000000000000090
:100070000000000000000000000000000000000080
:10008000EB04180A063204260000000000000000FD
:10009000050404240000000000000000000000002F
:1000A0000000000000000000000000000000000050
:1000B0000604000000000000000000000000000036
:1000C0000000000000000000000000000000000030
:1000D00020041808000000000000000000000000DC
:1000E0000000000000000000000000000000000010
:1000F0000000000000000000000000000000000000
:10010000D8041808000000000000000000000000F3
:100110000204180804200000000000000000000095
:1001200000000000000000000000000000000000CF
:10013000600400000000000000000000000000005B
:1001400000000000000000000000000000000000AF
:10015000000000000000000000000000000000009F
:10016000000000000000000000000000000000008F
:10017000000000000000000000000000000000007F
:10018000000000000000000000000000000000006F
:10019000000000000000000000000000000000005F
:1001A000000000000000000000000000000000004F
:1001B000000000000000000000000000000000003F
:1001C000000100000010000001000000000000001D
:1001D000000001000000000000000000000000001E
:1001E000000000000000000000000000000000000F
:1001F00000000000000000000000000000000000FF
:10020000FFFFFFFFFFFFFFFFFFFFFFFFFFFFFFFFFE
:10021000FFFFFFFFFFFFFFFFFFFFFFFFFFFFFFFFEE
:10100000D10020402C100060000000000000000013
:1010100020100060001000600000000000000000D0
:101020000000006018B30000000000000000012074
:1010300035100060774B4FF42A01774A77485A649D
:101040001864774A99639546764A03F530337649B2
:1010500008208A42C3F854010FD0744B9A420CD234
:10106000D4430846234423F0030304330B4450F8CD
:10107000041B984242F8041BF9D16D4A6D498A421B
:101080000FD06D4B9A420CD2D4430846234423F030
:10109000030304330B4450F8041B984242F8041B2A
:1010A000F9D1664A664B9A420BD2D04311460024CE
:1010B000034423F003030433134441F8044B8B42ED
:1010C000FBD1604A4FF470015F4B116003F5307142
:1010D0005E4A43F8042F9942FBD15D4B80215D4A63
:1010E00003F8011B9342FBD15B4C4FF080375B4E02
:1010F0004FF0FF32DFF8A4A10025DFF8A491DFF85C
:10110000A481574B4349C3F800A0C4F80471C4F844
:101110000091C4F8F470C4F8F080F36923F07F0301
:1011200043F04003F361736A23F07F0343F040030D
:1011300073628A66CA660A674A6700F0B5F8494A68
:101140006320494B4949106003221D60CAF83810DA
:1011500043F8082C4649474A4748C3F8082D0B680E
:10116000464A43F08073CAF83C0045480B60136858
:10117000444943F00103136003680B6000F0CEFAAA
:10118000C4F804714048C4F80091C4F8F470C4F87D
:10119000F08000F091FC00BF00BF00BF00BFF16E07
:1011A0003A4A41F440513A4BF1661560C2F8085191
:1011B000C2F81851C2F82851C2F838519A6BD207B8
:1011C00008D442F61562334959651A659A6B42F0A4
:1011D00001029A632E4A304C936843F001139360E6
:1011E00000F0DEF800F074FC2368132BFCD900F04B
:1011F00055FB00F0C9FB00F077FC00F0C1FA00F0ED
:1012000063FC2368B3F5967FFBD300F069FC00F024
:1012100057FCFEE700C00A40AFAAAAAA07002000B8
:101220000000072000000000101B0060C8830000C1
:1012300000000020DC9E00604014002040140020CC
:10124000C042042088ED00E0FC2B0420795C000003
:1012500000E400E0A0E400E000800D4000C00F408A
:1012600008ED00E014E000E018E000E05D4A000056
:10127000FCED00E000002020614A0000001000E0CA
:10128000041000E0E82704200046C3230040084083
:1012900000400D400000C056F0270420002C042020
:1012A0001B1018200C0D1113F0B5284A0020284BF4
:1012B0004FF0100C274C1127DFF8D8E012262060E1
:1012C0000125C2F800C0C3F800E01760DFF8C8E0ED
:1012D000214FC3F800E016601F60204E204F1660BB
:1012E00020491F60204E41F01501204F16601F60FD
:1012F00007F540371E4E116002371E60DFF89CE094
:101300001C4E1D49C2F800E01F6016601B4F19609B
:101310001B4E1C4917601E601B4F11601B4E1C4961
:101320001F60166019602560BFF34F8FBFF36F8F8A
:10133000C3F8B001BFF34F8FBFF36F8F52F8883CF3
:1013400043F4403342F8883CF0BD00BF9CED00E020
:10135000A0ED00E094ED00E0090010001300200073
:1013600021000207C04204201400002025000813B9
:10137000090000101700004033001013180000602F
:101380002F000B071900007037000B171A000070B0
:101390002F000B133F00001025000803160020202B
:1013A000F0B5B84B1822B84E0120B84948F20C7E6F
:1013B000B74D4FF0FF37B74CC3F85C12C3F860521B
:1013C0000025C3F86412C3F868424FF40054C3F810
:1013D0006C62B149C3F87062C3F87462C3F8786292
:1013E000AE4EDA661A675A679A67DA67C3F88020E2
:1013F000C3F88420C3F8882040F20562C1F82C03AA
:10140000C1F83003C1F83403C1F83803C1F83C0314
:10141000C1F850032946B369A1481840A14B0343C2
:10142000A148B361D6F8843043F00C03C6F8843089
:101430000226036833430360036803EA0E0E9B4BE6
:101440004EEA0303DFF89CE20360994B4760DEF845
:1014500008703B40974F43F000538360C36823F00C
:101460007803C360036A1F40934B3B43914F036271
:10147000036A1F40904B3B43904F43628762C762B1
:10148000DEF8B8308E4F23F03F0343F00103C0F87D
:10149000B830DEF8BC30DFF834E223F03F0343F02D
:1014A0000103C0F8BC30056104660767C0F88020FE
:1014B00044664767C0F884200468824B24F0020425
:1014C000814A0460C0F818E0C66143F8041B9342E7
:1014D000FBD1754B1A68194642F001021A600B687D
:1014E000714A13F00103FAD1784E022540F2F564F7
:1014F00040F2664040F29941754F966142F20146D2
:10150000D56140F23545C2F8004242F20124C2F8EA
:1015100010020120C2F820121146C2F8307207F101
:101520005A47C2F8346207F51377C2F84052694E41
:10153000694DC2F85072C2F85462C2F86052C2F8E3
:101540006442C2F8A030C2F8A430C2F8B0004B69BF
:10155000554ADD07FBD5012300244FF480301146A6
:101560005361C2F8A040C2F8A400C2F8B0304B6981
:101570004D4ADC07FBD5012300244FF4003011460F
:101580005361C2F8A040C2F8A400C2F8B0304B6961
:10159000454AD807FBD50123002450481146536122
:1015A000C2F8A040C2F8A400C2F8B0304B693E4A6D
:1015B000DB07FBD5D2F8003145F60D5121209BB257
:1015C00050618B4200D0F0BD00244FF480200123F5
:1015D0001146C2F8A040C2F8A400C2F8B0304B696E
:1015E000314ADF07FBD501234FF4000400201146E8
:1015F0005361C2F8A040C2F8A400C2F8B0304B69F1
:10160000294ADE07FBD501234FF400044FF4803054
:1016100011465361C2F8A040C2F8A400C2F8B0302D
:101620004B69214ADD07FBD501234FF400044FF439
:10163000003011465361C2F8A040C2F8A400C2F8BD
:10164000B0304B69184ADC07FBD501234FF4000486
:10165000224811465361C2F8A040C2F8A400C2F863
:10166000B0304B69104AD807FBD5D2F8003145F6A7
:101670000D5121209BB250618B4235D0184B08226E
:101680001A70F0BD00801F40F9700100F9B0010030
:10169000F9100100F900010000841F4000C00F4054
:1016A000FFFCFF1F000300A000402A401200FFFFC4
:1016B000FF37F70000FFF07C40000080FF000F8341
:1016C0006300020000422A4000432A40F05AF05AC8
:1016D0009F041830063201263806180A0400030059
:1016E000F427042000802A404FF400044FF48020A7
:1016F00001231146C2F8A040C2F8A400C2F8B030DD
:101700004B69044ADB07FBD50120034B10215061D4
:101710001970F0BD00402A40F4270420F0B4174AA5
:1017200040274FF480314FF480564FF400554FF46A
:10173000404443F24200136913F0020F06D0946153
:1017400051619061136913F0020FF8D113F4005F37
:1017500001D15561EFE713F4805F01D15661EAE7EB
:10176000002BE8DA13F4803F01D09161E3E75B06D8
:1017700001D45761DFE7F0BC704700BF00800D4027
:101780003B4AF3EE096A3B4900201368F0B523F0A9
:1017900001030324DFF800E11360C2F89040D1F8A0
:1017A000E030354FDDB2C3F30B24344EC4EB13539A
:1017B00007EE905AA5F15501CEF80050B8EEE77A41
:1017C00003EB830507EE904A03FB01F13B6003EB5B
:1017D0008313B8EEE75A07EE901A491B77EE666A54
:1017E000B8EE677A264D07EE901A0B44C5ED006AF5
:1017F000F8EE677A3460C7EE265A224E1568224901
:10180000224C87EEA66A07EE903A214BC6F840318B
:10181000F8EE677A87EEA67A75EE855A76EE056A57
:10182000FCEEE55AFCEEE66A15EE903A45EA035303
:1018300016EE905A77EE057A136001EA0541D2F868
:101840001031FCEEE77A0B43C2F8103117EE903AF4
:10185000D2F81011C3F30B030B43C2F81031136815
:1018600043F00203136020700A4B01221A60F0BD9E
:1018700080810D4000441F400028042004280420DB
:10188000FC270420002C04200000FF0F40E400E0AF
:10189000555D000008E100E0F8270420304B40F6D9
:1018A000617270B5C3F8202140F2044500F020F9C0
:1018B0002C492D48D1F880202C4C42F003022C4BAF
:1018C000C1F88020C0F86051226813401BB9D0F8DD
:1018D000A8319A071AD0244B4FF00041234A516394
:1018E0001A46D3F8401141F00201C3F84011D2F872
:1018F00040319B07FBD44FF400301E491B4B4FF087
:101900000042086019209A6300F0F6F81A4D002290
:10191000164B4FF08041144C0A26996328461A60F2
:101920001146C4F8A8614FF4207200F0D5F84FF4C6
:1019300081064FF4800040F24313104A10492E6094
:101940002864C4F85851C2F80412C4F848310D4A4A
:101950004FF4003101231160C4F8403170BD00BF65
:1019600000800D4000C00F4000002E4000900D4050
:10197000001C1E008CE200E000400420002C04202B
:10198000C15E00000CE100E0114B1249D86E0A461E
:1019900040F4403030B4D86640F23765D86EA024A9
:1019A00040F44070D8664D648C64936C1B06FCD484
:1019B000094B40F23760A0211A4658649964936C31
:1019C00013F08003FBD1054A137030BC704700BF91
:1019D00000C00F4000400C4000800C40212A042031
:1019E00001FFFFFF16035500530042002000530083
:1019F00065007200690061006C000000180354006B
:101A0000650065006E007300790064007500690070
:101A10006E006F000403090409024300020100C0C4
:101A20003209040000010202010005240010010532
:101A30002401010104240206052406000107058291
:101A40000310001009040100020A0000000705034A
:101A50000240000007058402400000000902430024
:101A6000020100C032090400000102020100052445
:101A700000100105240101010424020605240600CA
:101A8000010705820310000509040100020A000095
:101A9000000705030200020007058402000200009F
:101AA0000A06000202000040010001FFF8B500BF75
:101AB000F8BC08BC9E4670475FF800F02D5300004C
:101AC0005FF800F0215800005FF800F0955C00001E
:101AD0005FF800F0915C00005FF800F0C97600004C
:101AE0005FF800F0516F00005FF800F0BD59000092
:101AF0005FF800F0796600005FF800F0F155000033
:101B000045000000290C0000FFFFFFFFFFFFFFFF63
:101B100000000000000000000000000000000000C5
:101B200000000000000000000000000000000000B5
:101B300010B5054C237833B9044B13B10448AFF307
:101B400000800123237010BD40140020000000001D
:101B5000C4830000084B10B51BB108490848AFF317
:101B600000800848036803B910BD074B002BFBD069
:101B7000BDE81040184700BF0000000044140020DA
:101B8000C48300004014002000000000C9B20829EE
:101B900004D0BD290CBF02200020704701207047EF
:101BA00003682DE9F0419B6A0446DFF828E01546FA
:101BB0000E46476A73450AD1FFF7E8FF3D542A46AF
:101BC0002368F1B220465B6BBDE8F04118479847A7
:101BD000F4E700BF7D00000038B50568054AAB6A30
:101BE000446A934203D1FFF7D1FF205C38BD984788
:101BF000205C38BD7D00000038B50568846AEB6A5A
:101C00009847205C38BD00BF2DE9F0411E460368AF
:101C100014460546DB6A0F46D0F8288098470949E4
:101C2000324608F800602846A1FB04312B684908B9
:101C30005B6B01EBC101611A3944BDE8F041C9B2E7
:101C4000184700BF398EE33838B50568C46A2D6B74
:101C5000A847205C38BD00BF094B02F0010200B567
:101C6000A3FB01E300EBC2005B08024403EBC303E8
:101C7000CB1A52FA83F393F8A4005DF804FB00BF7B
:101C8000398EE33890F83000704700BF08B503681C
:101C90000121DB689847C0F3401008BDF8B5044641
:101CA0000025007A0E460121174605F0F5FA207B43
:101CB000012105F0F1FA207C294605F0EDFA207D9E
:101CC000294605F0E9FA636846FA05F113F825009C
:101CD000013501F0010105F0DFFA082DF3D10021F3
:101CE000207A05F0D9FA324D3249334A08682B6818
:101CF000A2FB0332920C0B682E4E1B1A9A42FAD8A2
:101D00000121207A05F0C8FA0121207B05F0C4FAF0
:101D10000021207C05F0C0FA0121207D05F0BCFAED
:101D20003168254864232A68A0FB0202920C03FB59
:101D300002F233685B1A9A42FBD80026636847FABE
:101D400006F113F82600013601F0010105F0A4FAAE
:101D5000082EF3D10021207A05F09EFA1549164A83
:101D600008682B68A2FB0332920C0B68114E1B1AF9
:101D70009A42FAD80121207A05F08EFA0021207BC0
:101D800005F08AFA0121207C05F086FA207D0121E8
:101D900005F082FA3168084864232A68A0FB020231
:101DA000920C03FB02F233685B1A9A42FBD8F8BD2F
:101DB000480A0020041000E083DE1B432DE9F041B7
:101DC0003F4C0546204601F0D9FAE37C002B28D091
:101DD00072B6E27CD607134605D53A4861690668B3
:101DE0003140A1620160900706D53749A2690868B1
:101DF000E37C0240E2620A60590706D53349E26992
:101E00000868E37C024022630A601A0706D530495D
:101E1000226A0868E37C024062630A60DB0639D408
:101E200062B62C48A368264983423AD02A4B2B4EEF
:101E30009A6903F143738860C2F30117C2F38262A7
:101E400003F5F45356F8271001320333B1FBF2F2D5
:101E5000A3FB02131B0D08D0B2FBF3F2824288BF32
:101E60000133B3F5817F1ED31D4BE3602968002049
:101E700022680327072601241061284657628968D3
:101E800013641666146188472B6828465B68BDE8B2
:101E9000F0411847134A636A11680B40A36313604B
:101EA000BEE7CB68E2E7022B98BF0023DDD9023BF7
:101EB00059080A0443EA012302F47F021343D4E7DA
:101EC0002C09002080E100E084E100E088E100E0EE
:101ED0008CE100E000093D0000C00F400000002040
:101EE000FF7F7F0090E100E010B50446032005F07D
:101EF000C1FA94F83030606203EB430005F0BAFA9F
:101F000094F83030A06203EB8300400005F0B2FA91
:101F1000E06210BD0368012170B5DA680446DD692E
:101F2000904740F02002012120462B46D2B2BDE866
:101F30007040184771B90368012170B50446DD6926
:101F4000DA6890472B4600F0DF0201212046BDE809
:101F500070401847FFF7DEBF70B5056884B01A4EB1
:101F6000AD6BB54229D190F8300003F00103602930
:101F7000B2FBF0F400FB14224FEA8304D2B22344F4
:101F800002EB820003EB400080B212D00BD9802913
:101F900005D0E02900D1043000B204B070BD033098
:101FA00000B204B070BD4029F6D1013000B204B0D7
:101FB00070BD023000B204B070BD03930292019173
:101FC000A84701A90EC9D0E77501000000212DE93D
:101FD000F04F044683B0007F8A4605F05DF901208A
:101FE00005F08EF8207F0121D04605F055F92368D1
:101FF000524620465146DB699847236820464022D6
:10200000DB6908219847236820465246DB69BD21D9
:10201000984752E094F83000854259D22068002356
:102020002A46A021066A2046B047216800232A4696
:102030000E6A2046B0211F46B04722683B46C021A9
:10204000166A20462A464FF03F09B047FEB2236881
:102050002A46CDF800802021D3F824B0204633460C
:10206000D84722683346CDF800904021D2F824B0FA
:1020700020462A46D84722683346CDF800806021A2
:10208000D2F824B020462A46D84722683346CDF8F5
:1020900000808021D2F824B020462A46D847216803
:1020A00001373346CDF800802A464E6A2046E021AB
:1020B000B047022FCAD10AF1010A23685FFA8AF5F4
:1020C000054A9B6B9342A5D0204698478542A5D3ED
:1020D00003B0BDE8F08F00BF7501000030B50468A3
:1020E00083B0114DA46BAC4217D190F83000B029E9
:1020F000B2FBF0F300FB132202EB4202D2B208D093
:10210000C02902D0104603B030BD0232D0B203B0B5
:1021100030BD0132D0B203B030BD8DE80600A0471B
:102120009DE80600E3E700BF750100002DE9F047D8
:10213000056806469DF820708846D0F82CA0914688
:102140002D6B1C46A8470AF8007032681149936944
:102150008B4219D1104D04F00103A5FB091506EBC4
:10216000C3016C080B4404EBC404C4EB090453FA28
:1021700084F494F8A40008EB0001536B30463A460F
:10218000C9B2BDE8F047184722464946304698474D
:102190003268F0E749010000398EE3382DE9F04755
:1021A0008C460446914698465348092308210A2242
:1021B000524E04F1340E206004F1540584F82010CE
:1021C00004F1840784F8222084F8213084F8303028
:1021D0000FCEAEE80F0006F1100A96E80F008EE869
:1021E0000F00BAE80F000FC5BAE80F0006F1400E65
:1021F0000FC59AE80F0085E80F00BEE80F00B24651
:1022000004F1A4050FC79EE80F0087E80F005AF8F5
:10221000600FB6463746DAF80410DAF80820DAF824
:102220000C30BAF810A00FC5089A6346A5F800A0B4
:1022300000252261099A56F8741F5EF8800F57F83E
:1022400088AF62610A9A9EF804E0C4F8B610A261F1
:1022500071680B9A36893F79C4F8BA10A4F8BE6049
:10226000C4F804C0C4F80890C4F80C80E261C4F853
:10227000C00084F8C4E0C4F8C5A084F8C97000E0C8
:102280006368585D0435012105F012F8202DF7D15F
:10229000207A012105F00CF8207B012105F008F8D7
:1022A000207C012105F004F8207D012105F000F8D3
:1022B000207E012104F0FCFF207F012104F0F8FFC3
:1022C000207A012104F0E8FF207B002104F0E4FFE4
:1022D000207C002104F0E0FF207D002104F0DCFFE1
:1022E000207E002104F0D8FF207F002104F0D4FFDD
:1022F0002046BDE8F08700BFB80000201000002095
:10230000002070474FF0FF30704700BF704700BF9C
:10231000027C02F0080202F0FF0332B1C36A406A95
:10232000181A48BF6FF0004070471846704700BF4A
:1023300000B583B0012210300DF1070101F0B2FAAF
:1023400001280CBF9DF807004FF0FF3003B05DF887
:1023500004FB00BF103001F0C9BC00BF00B583B062
:102360000122103002AB03F8011D194601F0BEFC3A
:1023700003B05DF804FB00BF103001F061BB00BF8B
:10238000103001F0ADBC00BF10B5084C2268012A26
:1023900004D0511C064B2160985C10BD00230449F9
:1023A0000448236001F07EFA2268F2E7F01D002065
:1023B00018260420D814002070B5FFF7E5FF044666
:1023C000FFF7E2FF0646FFF7DFFF054604EB0624B2
:1023D000FFF7DAFF04EB054404EB006070BD00BFBB
:1023E00070B582B001221F480DF1070101F05AFAC1
:1023F00001284FF001020DF107011A4814BFFF2612
:102400009DF8076001F04EFA012826D04FF47F4571
:1024100001220DF10701134801F044FA012818D0F8
:102420004FF47F040DF1070101220E4801F03AFA42
:10243000012806D035444FF07F402C44204402B0A0
:1024400070BD9DF80700354400062C44204402B0BE
:1024500070BD9DF807000404E4E79DF8070005023D
:10246000D6E700BFD814002010B5094C0948214612
:1024700004F0FEFB2146084804F0FAFB2146074819
:1024800004F0F6FB21460648BDE8104004F0F0BB1E
:10249000380200205C140020F81D0020D81D002008
:1024A000B0140020F0B587B00824FFF785FFFFF7D0
:1024B00083FF934B1860FFF77FFF924B1860FFF785
:1024C00063FF013CFBD1904EFFF776FF8F4F214613
:1024D000756A386006F1100001F0E8FA3B68716A2D
:1024E00006F110001944143101F0E0FAFFF778FF0B
:1024F000FFF776FFFFF774FF0746214602A804F0B6
:1025000085FB4FB92BE001F0CDF90134314602A82B
:1025100004F0F0FBBC4222D001220DF107017C48FF
:10252000FF2601F0BFF9012203460DF10701904299
:102530007748E8D11A469DF8076001F0B3F9012801
:102540004FF00A0102A8E0D19DF80730002EDCD13F
:10255000002BDAD1013404F0CDFBBC42DCD10024E5
:1025600006E004F0FBFB01786A48013404F0C2FB8A
:10257000214602A804F0F2FB0378214602A80A2BA8
:10258000EFD1013402A8214604F0E8FB03780A2BBE
:10259000F7D1013406E004F0E1FB01785E48013434
:1025A00004F0A8FB214602A804F0D8FB03782146DA
:1025B00002A80A2BEFD1013402A8214604F0CEFB79
:1025C00003780A2BF7D1013406E004F0C7FB017849
:1025D0005248013404F08EFB214602A804F0BEFBF1
:1025E0000378214602A80A2BEFD1013402A8214624
:1025F00004F0B4FB03780A2BF7D1013402A821467A
:1026000004F0ACFB03780A2BF7D1013402A8214671
:1026100004F0A4FB03780A2BF7D1013405E004F0A1
:102620009DFB01783E4804F065FB214602A804F0BA
:1026300095FB0378214602A80A2B04F10104EED190
:102640003449384804F0A4F9364804F0C7F932494F
:10265000344804F09DF9334804F0C0F92F4931485B
:1026600004F096F92F4804F0B9F92D492D4804F0EB
:102670008FF92C4804F0B2F900212B4806F0E2F85B
:10268000284804F0ABF92946214801F00FFAFFF77A
:1026900093FE264B1860FFF78FFE254B1860FFF75F
:1026A0008BFEFFF789FEFFF787FEFFF785FEFFF73A
:1026B00083FEFFF781FE0546C0B1A0F10C04B4FA19
:1026C00084F4640994B90D211A4806F0BBF8154842
:1026D00004F084F9043D04D00134FFF755FEAC4208
:1026E000FAD102A804F052FA07B0F0BDFFF764FE79
:1026F000FFF762FE02A804F049FA07B0F0BD00BF80
:10270000101E0020F41D0020C8140020C414002056
:10271000D81400205C140020F81D0020D81D0020D3
:10272000B01400207C0A002038020020D01D0020B8
:10273000081E0020200100202DE9F0411E2384B056
:102740001D221F2020210393029221230190222287
:10275000009100243149012731482926FFF71EFD49
:10276000304B31494FF0070E304D1846C3F86C140A
:102770002F4A3049C3F884E4C3F878242A46C3F8C2
:10278000801483F88D744FF47A7783F88F64DC714A
:1027900083F8444483F8454483F8464483F87444FA
:1027A00083F8754483F89244234906F047F9DFF82B
:1027B000A080224B2146224E4046224A9F601C7137
:1027C0001C731C745C749C741F4F1A6004F01EFA16
:1027D0002A4631464046DFF87C8006F02FF9214634
:1027E000384604F013FA2A463146384606F026F9F0
:1027F000164F2146404604F009FA2A463146404623
:1028000006F01CF92146384604F000FA2A46314603
:10281000384604B0BDE8F04106F010B908090020C0
:102820001C260420FC1400206C030020000900205A
:102830001403002000093D00FD070000C81400201B
:102840007D50000004010020F81D0020B01400207D
:102850005C140020D81D0020F0B504468FB00D4652
:10286000FFF702FE042C00F25181DFE814F0430070
:10287000F1000201110105000921A64805F0E2FF5F
:10288000A54C2946A54804F083F8A44804F0A6F80E
:102890002368002B40F32A81002607E001A80136B7
:1028A00004F074F92368B34240F320819C4901A8E5
:1028B00004F0ACF901A804F093FA284604F090FA69
:1028C000014601A804F03CFA0028E7D0954D01A884
:1028D0002E6004F05BF90B21934805F0B3FF8F489D
:1028E00004F07CF80D21914805F0ACFF8B4804F012
:1028F00075F80AE000238B4D11218D48864C2B6022
:1029000005F0A0FF854804F069F88A48FFF756FAF9
:10291000894E0023894A8A48152113603360894F04
:10292000894E8A4A03608A4813603B603360894A53
:10293000894E8A4F03808A4833603B70137053700E
:1029400005F080FF296875480131864E04F096F83D
:102950000121854805F076FF2168704804F08EF863
:102960006E4804F03BF8337C002B40F0BA802868B6
:1029700000217E4A4FF47A7501307D4C0B468DF86C
:10298000081000EBC010019405AC8DF8101002EB9C
:10299000C0028DF814108DF8151005A805328DF8B9
:1029A00016107449039500F053FF734D9DF808709D
:1029B0000FCC0FC50FCC3771D4F800E0039F347CE7
:1029C000B7600FC59DF81030C5F800E03373002CD8
:1029D0007FD11121694805F035FF504803F0FEFF13
:1029E00001225C49644800F05DFF654CFFF75AFD29
:1029F00064490122B7EE005A0C6000236248144675
:102A00006249DFED635ADFED636A002B7BD007EE8E
:102A1000903A102AB8EEE77AC5EE877A37EE856AE3
:102A200086EEA77AC6EE867A27EE267ABCEEC77ABD
:102A300067EEA67A17EE105AFCEEE77A40F82350BC
:102A400017EE905A41F823503DD001330132DCE7B4
:102A5000344D0A21304C2B68226801334E48934292
:102A6000A8BF00232B6005F0EDFE2C4803F0B6FF55
:102A70004BE72C4D2B68002B40D0013B264C2B60A4
:102A80000E21464805F0DEFE244803F0A7FF3CE790
:102A9000244D04F09BFB04F06FF81F4C2A6893B29E
:102AA0009A4207D12068013804F06CF82A6883B292
:102AB0009342F7D009213A482B6005F0C3FE17482E
:102AC00003F08CFF21E74FF47A7004F019FB0FB08C
:102AD000F0BD1621334805F0B5FE104803F07EFF27
:102AE0007EE706F1100000F03FFE40E734212E485B
:102AF00005F0A8FE094803F071FFE8E7064C2368DB
:102B0000013B2B60BCE703600C609EE7054D024C67
:102B1000FBE600BF94010020141E00207C0A002068
:102B2000D0190020EC1D0020A0010020AC010020E5
:102B3000580100201C260420D01D0020081E002063
:102B4000D41D0020040900200C1E0020E8260420CB
:102B50006C14002018260420F01D0020E81D002021
:102B6000BC010020C8140020D4010020181E002041
:102B700004010020FC140020D8140020D8010020FB
:102B8000E967B541C014002090190020701400209E
:102B900000442C4700007A446C010020780100209A
:102BA00088010020EC010020040200202DE9F047FC
:102BB0000024A8B04FF47A77DFF81492022120465F
:102BC0008DF808408DF810408DF814408DF81540B0
:102BD0008DF816408DF83C408DF844408DF8484003
:102BE0008DF849408DF84A4003971097CDF804902E
:102BF000CDF8389004F05CFB0221012004F058FB72
:102C000002216A4D084604F053FB0221032005F21D
:102C10006C4604F04DFB0221042004F049FB64489B
:102C2000FFF7CCF82146304602F0EEFF3046C5F8FB
:102C3000686402F05DFB48B111215E4805F002FEB8
:102C40005D4803F0CBFE28B0BDE8F0878246012244
:102C5000D5F86814284601F06DFE0028ECD005F286
:102C6000444000F081FD294605F2444000F014FE86
:102C70000028E1D0514C29465346514A25601FADEA
:102C80001FA81D978DF870A005AC8DF878A056464A
:102C90008DF87CA08DF87DA08DF87EA0CDF86C908D
:102CA00000F0D6FD474FDFF82C81C7F800A00FCD0C
:102CB0000FC40FCD0FC42D689DF870101D9A9DF89C
:102CC000783025608DF8081003928DF8103022E0DE
:102CD000396801EBC11108EBC101053101F05CFD60
:102CE0003C6804EBC41408EBC4040534204606F029
:102CF000AFFE0146204605F0A5FD2F4803F06EFE0D
:102D00003B6812A803EBC31248F8323000F02CFDE8
:102D10003B6801333B604FF47A731FAD002205A975
:102D20001FA81D938DF8706012AC8DF878608DF837
:102D30007C608DF87D608DF87E60CDF86C9000F041
:102D400079FF9DF870C00FCD0FC40FCD0FC4D5F81B
:102D500000E04FF480629DF8783012A81D999DF82C
:102D600048508DF83CC0C4F800E010918DF8443014
:102D7000002DADD13B6805A8013B3B6000F0F4FCA1
:102D80000A21114805F05EFD0B4803F027FE0F49AC
:102D90001BA803F03BFF1BA92846FFF75DFD1BA8FE
:102DA00003F0F4FE28B0BDE8F08700BFFC1400205B
:102DB0001C260420480200207C0A0020EC26042067
:102DC000D4010020141E00203C0200203802002004
:102DD00004010020181E0020F0B5B04D89B005F0A8
:102DE000CBFCA8B305F0C8FC0446002800F08680A0
:102DF00005F002FDC0B22D2800F0878040F29180DE
:102E00002F2800F09F80C0F0B6807228E7D1002CF8
:102E100000F0C7804FF48062A14968466C4603F019
:102E200051FE01220021204603F0C0FF214604A8E4
:102E300003F000FF04A90420FFF70EFD04A803F02F
:102E4000A5FE204603F0A2FE05F096FC0028C9D19D
:102E5000944803F0ADFB0028C4D1022004F022FA0C
:102E6000002800F03581002004F01CFA002800F052
:102E70004081012004F016FA002800F04B81042064
:102E800004F010FA68B9854B1A78022A00F0A48081
:102E900002220A2184481A7005F0D4FC804803F00D
:102EA0009DFD032004F0FEF9034668B97B4A1178C2
:102EB000002940F08880032308217C48137005F026
:102EC000C1FC774803F08AFD794F7A4B3A881B881A
:102ED0009A4207D3714C2378022B00F03381032BE5
:102EE00000F02481744D04F071F9744C06462B688F
:102EF0002268C31A934279D809B0F0BD694803F03B
:102F00006BFBC0B22D287FF479AF6D4904A803F0A4
:102F10007DFE04A90220FFF79FFC04A803F036FE03
:102F20005DE72A281BD02B287FF459AF644904A8F9
:102F300003F06CFE04A90120FFF78EFC04A803F047
:102F400025FE4CE72B78022B21D002230A2156487C
:102F50002B7005F077FC524803F040FD3FE75849DD
:102F600004A803F053FE04A90320FFF775FC04A88E
:102F700003F00CFE33E72B78DBB9032308214B4821
:102F80002B7005F05FFC464803F028FD27E703237C
:102F90000B214C482B7005F055FC414803F01EFDF9
:102FA0001DE74FF480623F4968466C4603F08AFD96
:102FB00037E70023072144482B7005F043FC3848CD
:102FC00003F00CFD0BE707213F48137005F03AFCB6
:102FD000334803F003FD77E703220B2139481A70C9
:102FE00005F030FC2E4803F0F9FC5AE7FFF7CCF966
:102FF000364AA0F15A031070252B3FF67DAF01A28F
:1030000052F823F0D1160000E9130000E913000084
:10301000E9130000E9130000E9130000E9130000C0
:1030200099160000591600004F160000E913000021
:10303000E913000063160000E9130000E913000023
:10304000E9130000E9130000E9130000E913000090
:10305000E9130000E9130000E9130000E913000080
:10306000E9130000E9130000E9130000E913000070
:10307000E9130000E9130000E9130000E913000060
:10308000E9130000E9130000E9130000E913000050
:10309000E9130000E9130000E71600002A090020E8
:1030A0007C0A0020E409002068020020740200204D
:1030B0006C14002028090020E82604200C1E0020A3
:1030C000380200205C02002080020020E81D002061
:1030D0004D4904A803F09AFD04A90120FFF7BCFBA9
:1030E00004A803F053FD002004F0DCF800287FF46E
:1030F000C0AE454904A803F089FD04A90220FFF7EA
:10310000ABFB04A803F042FD012004F0CBF800283B
:103110007FF4B5AE3C4904A803F078FD04A9032070
:10312000FFF79AFB04A803F031FDA8E6364904A88E
:1031300003F06CFD04A90120FFF78EFB04A803F047
:1031400025FDCFE6304904A803F060FD04A9032063
:10315000FFF782FB04A803F019FD2378BFE644F6CD
:1031600020632E602360C7E644F21A132E602360AA
:10317000C2E6264B1968002942D01C393B882448F6
:1031800001333B8000F092FC01222249204800F0EC
:1031900089FB214B0022102120481A6005F052FBC8
:1031A0001F4803F01BFCA7E6FFF7EEF80746FFF702
:1031B000EBF89FED1C6A07EB00209FED1B7A2E6059
:1031C00080B207EE900AF8EE677AC6EE276AC7EE7D
:1031D000267A67EE877AFCEEE77AC4ED007A8BE612
:1031E000FFF7D2F80446FFF7CFF8024621460F4812
:1031F000FEF754FD80E60E4B2E60DB6B23607BE612
:10320000402224211A60B9E738020020081E00205D
:10321000D814002018260420F01D00208802002069
:103220007C0A002000442C4700007A441C2604201D
:103230007014002010B4047F4160022CC26003D0DF
:103240005DF8044B03F030B983685DF8044B184710
:1032500070B440F20125046825611BB31E46F1B12C
:103260000D780131013B6566256FAD0706D4656FAA
:10327000013EEDB212B11570013204686569ED07C7
:10328000F2D5002BEBD16EB101680B6F9B07FCD41C
:103290004B6FDBB20AB113700132013EF3E790F8D5
:1032A0003C50DFE770BC7047F0B5304C304BA06C41
:1032B000656C0179226CD9772979197701791977A9
:1032C000FAB1B2F5004F18D22B6892B2D98B0E0426
:1032D0003BD4DA83D98B89B2D9820368D98B0904AC
:1032E0002CD4DA830021DA8B92B2DA82216402795B
:1032F0001F4BDA762A79DA76F0BD1E4B134423642D
:10330000F5E7E06C0F25236840F2013E01684FF4B9
:103310007C579D6503260D681749DA618D42C3F815
:1033200010E05F6184F83D6017D1037F4260022B9B
:10333000C26017D0BDE8F04003F0B6B8D98BC2F335
:10334000080201F47E410A43CBE7D98BC2F3080699
:1033500001F47E413143D983BCE72B461146BDE8D9
:10336000F04018478368BDE8F04018472C0900205A
:1033700000800E400180FFFF251700004368F0B574
:1033800093E88200DFF8FCE1B8260A680225754C54
:1033900022EA0702744F0A60DEF818201440734ACC
:1033A00027430F24CEF81870077C1F443F7C02EBA4
:1033B0000717BF683E60477C1F4497F8247002EBF4
:1033C0000717BF683E60877C1F4497F8387002EB90
:1033D0000717BF683E600F685E683E430E60017C61
:1033E0005E1803EB8101367C4F6902EB06114968D8
:1033F0000F60417C5E180A3196F8246053F8217002
:1034000002EB061149680F60817CD3F848E05E1832
:1034100003EB81011F6A96F83860C96B02EB061254
:103420005E6B52681160817C0268194491F8441007
:10343000CEF80010017C1944097F3960417C0B44AF
:1034400093F83030336015619465C37C002B29D02C
:1034500072B6C37CDC0706D5454A436911680B4048
:1034600083621360C37C990706D5424A8369116859
:103470000B40C3621360C37C5A0706D53E4AC3693A
:1034800011680B4003631360C37C1F0706D53B4ADA
:10349000036A11680B4043631360C37CDE064BD4A0
:1034A00062B60268364D8368AB424CD0354B8560BE
:1034B0009B69354CC3F30116C3F38261334B54F857
:1034C00026400131B4FBF1F1A3FB01431B0D29D1CF
:1034D000C360002603250724012116615562136489
:1034E00014661161C37CE3B1DD0703D5284B826A02
:1034F0001A60C37C9C0703D5264BC26A1A60C37C42
:10350000590703D5244B026B1A60C37C1A0703D5F5
:10351000224B426B1A60C37CDB0602D5826B204BC8
:103520001A60F0BDB1FBF3F1A94288BF0133B3F5D6
:10353000817F0AD31B4BCBE71B4A436A11680B40C0
:1035400083631360ACE7C368C3E7022B98BF002313
:10355000BED9023B5C08210443EA042301F47F0145
:103560000B43B5E7CFFFFFE310000008E4030020A2
:1035700080E100E084E100E088E100E08CE100E02F
:1035800000093D0000C00F400000002083DE1B4307
:1035900000E100E004E100E008E100E00CE100E00F
:1035A00010E100E0FF7F7F0090E100E00BB1FFF74A
:1035B0004FBE704738B50D4604462422002105F061
:1035C0000BFEA560EB79102B08D0202B04D14023F3
:1035D00001202370A07038BD002038BD20230120B9
:1035E0002370A07038BD00BF024638B552F8105F96
:1035F00004468068294601F03DF950B155B1236970
:103600000135AB42A37818BF03F0BF0363F07F031B
:10361000A37038BDA37843F04003F7E72DE9F041EC
:10362000037803F020032BB903F0FF044169204B1A
:10363000994203D900263046BDE8F0810546FFF7E0
:10364000D3FF06460028F5D0A96805222B698F799B
:1036500001F12400023B4969BB405F18394602F082
:10366000EBFE80460028E5D04FF40072214605F0BD
:10367000B3FDAB681A79012A10D9012404E0AB68C4
:10368000E4B21A79A24209D91868E1194246013414
:103690000368DB6998470028F1D1CBE79B794FF4A9
:1036A0000072696902FA03F311FA83F36B61C2E7EE
:1036B000FFFD1F0010B5044680680A462430A1694A
:1036C00002F0BAFE20B1A38803F00F0300EB431011
:1036D00010BD00BF30B590F9023083B00446002B16
:1036E00019DBA56805F1240002F0D6FE30B9637835
:1036F000002043F00103637003B030BD05F50D7089
:1037000002F0CAFE0028F2D0286803689B69984737
:103710000028ECD0F0E70121FFF7CCFF0546002898
:10372000E5D00378E52BE2D023781B0701D5E369C8
:10373000C361236A0B491A0C6B830B68AA8263B1BD
:103740000DF103020DF1060101A89847BDF8043000
:10375000BDF806202B836B82EA82A37803F07F03F7
:10376000A370BEE73C27042010B50378044623B9B4
:10377000002301202370A37010BDFFF7ABFF0023CF
:103780002370A37010BD00BF2DE9F041064694B030
:1037900000200D46317801928DF82C008DF82D0017
:1037A0008DF82E0021B998462B7813F0700F03D1B5
:1037B000002014B0BDE8F081137811462F2B2AD0D9
:1037C000002702E001993770B77001AB03AA3046B9
:1037D00000F0BEFE03AA294600230028E8D0019C81
:1037E0003046247834B300F069FD35460BAC002830
:1037F000DED096F800E00FCD0FC40FCDD5F800C095
:103800000BAD0FC4C4F800C0BEF1000FDAD03046D3
:10381000FFF760FFD6E7013101910B782F2BFAD02B
:103820008BB1A9680BA8FFF7C5FE0028C0D00BAD6F
:103830000199C5E7434603AA2946304600F03EFDFC
:1038400014B0BDE8F081A9683046FFF7B3FEB0E7D9
:1038500019B101F24441FFF797BF0846704700BF16
:1038600038B5CB6843B902780AB1184638BD8968C3
:10387000BDE83840FFF79EBE0D46242200210446D5
:1038800005F0AAFC01231022A37018462270AA6832
:10389000EB68A260236238BD03780BB1002070474B
:1038A000FFF788BE2DE9F04F837883B00546DF0728
:1038B00040F190800F46017891460E0700F1938009
:1038C0008C0608D5826843691289C3EB42139BB208
:1038D000994528BF9946B9F1000F00F0AA806B699D
:1038E00088064E464FF0000805F1100AAA68C3F397
:1038F000080440D5116A01EB5321002C54D1B6F5D0
:10390000007F51D3136B99424ED0B6F5806F73D3BD
:1039100028784FEA562B800605D41079C8EB0000B2
:10392000834528BF834699424FEA4B240DD801EBCB
:103930000B00834209D202F124000191009202F0AF
:10394000ABFD009A0199002844D0906A5B463A4644
:10395000D0F800E0DEF810B0D84700283AD06B6904
:10396000361B274423446B6163D02978C3F30804D2
:10397000AA688806BED492F8058008EA5328002C6D
:1039800038D1B8F1000F35D1002B3FD148064CBFDC
:10399000136A2B6A2B619179023B50698B4008EBCB
:1039A00000011944002CAAD002F12400002202F0E8
:1039B00043FD78B1C4F5007301193846B34228BFFE
:1039C00033461A461C4603F0BBFCC8E72B7813F0BD
:1039D000700F2FD16B784FF0FF3043F002036B7004
:1039E00003B0BDE8F08FC36942699B1A994528BFAF
:1039F000994670E72B69CEE7906A3A460368DB6820
:103A000098470028E6D04FF40074A8E7090705D5C9
:103A1000AB785B0602D52B690133BBE710462969F9
:103A2000524600F0BBFE0028D4DBCFD0AA682B6939
:103A3000B1E70026C6EB090003B0BDE8F08F00BF78
:103A400070B582B00122044646690DF1070105698F
:103A5000FFF728FF012866610CBF9DF807004FF0B3
:103A6000FF30256102B070BD436930B5C3F3431523
:103A700083B00446B5FA85F252098A4207D2203350
:103A80004361A068343000EB451003B030BD012223
:103A90000DF10701FFF706FF40B2012803D163696A
:103AA0001F336361EDE70020EFE700BF2DE9F04130
:103AB000037804460769B3B10D464169A9422CD089
:103AC00045B98378056123F0200365610120A37067
:103AD000BDE8F08118070AD49A060BD5A3681B89A4
:103AE000B5EB431F30D927610020BDE8F081E269C2
:103AF0009542F8D8D4F808E06E1EA2789EF8060029
:103B000012F0400F00F10900C0B226FA00F607D00B
:103B1000216A13460E442661D5E70120BDE8F081F5
:103B20004A1E22FA00F0864210D379B1361A04F107
:103B3000100806E02169013EA06800F02FFE002871
:103B4000D1DD4246002EF5D1A378BCE75B064CBF21
:103B5000DEF82030236A2361E9E700BF2DE9F04158
:103B60000D4690460021242204461F469DF8186009
:103B700005F032FBA86808F00F03296A00F134024F
:103B8000A060E16002EB4312A4F80480D17A0D0733
:103B900011D401F017012170D37A13F0180F02D15C
:103BA00041F00801217007F00303E670012B08D0F3
:103BB000022B2AD023B3002323701846A370BDE83C
:103BC000F0810223A370217811F0110FF3D159B2C3
:103BD00007F4806507F008030B43DBB2A370B2F86B
:103BE00014E0518B066B41EA0E41A66185B1D1B953
:103BF00063F07F03A3707B040ED40120BDE8F08145
:103C000017F48065D7D10121E4E70323A370DAE735
:103C10002162D369E361EEE7E1692046FFF746FFE1
:103C20000028EAD1C7E700F067FE0028C3D0A378D8
:103C3000DEE700BF03781BB90B7813F0700F01D1DA
:103C4000002070472DE9F0434D6983B015F01F0641
:103C500032D190460C460746B14611E0A3F1E50289
:103C6000B2FA82F25209A2B990F80BE00EF0080104
:103C700001F0FF0C79B1BEF10F0F21D01646656936
:103C800000212046FFF7F0FEB0B10378A3B12E2B40
:103C9000E4D10026F3E7D6B1421E0A304FEACC1336
:103CA00012F8011F43EA5C0C904251FA8CFC5FFA57
:103CB0008CFCF3D1CC450AD0002003B0BDE8F083E2
:103CC0005A06DCD503F01F0690F80D90D7E7009652
:103CD0004346C5F34F1221463846FFF73FFFECE756
:103CE00003780BB1FFF7F6BC012070472DE9F84FC0
:103CF000837805469C076DD590461A070F4664D415
:103D00006A69D343984565D8B8F1000F00F0D080B8
:103D100046464FF0000A4FF0FF393CE0BBF1000F80
:103D200040D1296900297ED0AB785B0640F19B80A9
:103D3000EB69934240F297804B1C01392B6190F85C
:103D400006E0436901FA0EF123441944B6F5007FF9
:103D500047D2B6F5007F344628BF4FF40074EB69B4
:103D6000934202D9AB789B062DD50522243002F070
:103D700063FB78B35844A3442246394603F0E0FA83
:103D8000BBF5007F00F08C806A69361B2744224413
:103D90006A6100F08D80A868C2F3080B447914EAC8
:103DA0005224BBD02B6990F806E0991E436901FAB2
:103DB0000EFEE1187144BBF1000FC7D0CBF50074C3
:103DC000B44228BF34460122D0E7C169FFF76EFE36
:103DD000002895D16B78002043F001036B70BDE89B
:103DE000F88FB6F5806F31D390F804E0730A026B58
:103DF000C4EB0E04A34228BF23468A424FEA432461
:103E000007D303EB010E724503D280F824A0C0F85B
:103E10003090806A3A46D0F800E0DEF820B0D8470B
:103E20000028B1D1D6E7296A61B3296102398279C4
:103E30004369B6F5007F01FA02F11944D1D2CBF5FE
:103E400000746A69B44228BF344688E7036B8B422A
:103E500021D0806A3A460368DB6998470028B9D0C8
:103E60004FF4007490E705F1100200F097FC002871
:103E7000B0DB04D12846FFF7B7FB0028AAD0296998
:103E8000A868D3E72846FFF7AFFB0028A2D029692E
:103E9000A8682962CAE780F824A0C0F83090D8E763
:103EA000A868243002F0F8FA00287FF46DAF91E79B
:103EB000EB6993420CD30A4B1B6833B1AB78404695
:103EC00063F07F03AB70BDE8F88F4046BDE8F88F24
:103ED000AB784046EA6163F07F03AB70BDE8F88FD2
:103EE0003C2704202DE9F04F05468BB0934606464B
:103EF0008A461F4601AC0FCD0FC40FCDD5F800E0A8
:103F0000DBF800500FC4CBF80450C4F800E0002FD9
:103F100041D0B9464FF00108C8EB0A0101A889B2A7
:103F20004901FFF7C3FD48B3002101A8FFF79CFD3D
:103F3000074618B30024E2B23946304600F05CFB75
:103F4000DBF80450DBF80830C2B2691C9D42A2F1D4
:103F5000610E22D07F2811D8A2F12003BEF1190FE3
:103F6000CBF8041098BFDAB22B78A3F16101A3F16A
:103F70002000192998BFC3B2934203D000200BB090
:103F8000BDE8F08F01340D2CD5D108F101085FFA9E
:103F900088F8C145C0D20120F1E7B0FA80F04009AD
:103FA0000BB0BDE8F08F00BF2DE9F04F07468BB096
:103FB000144688461E460DF1040E02F111054FF01D
:103FC000000B0FCFAEE80F000FCFD7F800C004F101
:103FD0001C07AEE80F00CEF800C04FEACB1315F86F
:103FE000012F43EA5B0BBD4252FA8BFB5FFA8BFB5E
:103FF000F3D123686360002E4ED04FF0000A0125F4
:1040000046F040095746C5EB080101A889B24901AD
:10401000FFF74CFD002851D0002101A8FFF724FD37
:1040200000284BD0DDF80CC0AE424FF00F0200F17B
:1040300004019CF8243014BFAE46CE4643F0010381
:104040008CF824300023077380F80DB080F800E06E
:10405000C272D4F808E047830BE00A2B03F1010396
:1040600001F10201DBB294BF21F8022C0A800D2B72
:104070000ED06268724513D0501C60601278042B19
:10408000EBD8013321F8032C0231DBB20D2BF0D138
:104090000135EDB2AE42B6D201200BB0BDE8F08FD3
:1040A000BAF1000F06D00AF1010A4FF6FF725FFA6B
:1040B0008AFAE4E752464FF0010AE0E700200BB02D
:1040C000BDE8F08F8446202062460CF11C012DE9EA
:1040D000F04752F8113BDCF8085002F8010F91420A
:1040E000FBD11A782E2A14BF0120002003D113F827
:1040F000012F2E2AFBD0691E99420DD915F8012CEB
:104100002E2A09D0AA1E02E00C782E2C04D09A4246
:10411000114602F1FF32F7D19D424FF000087DD9E0
:1041200007264FF0080E4446C14608E0994209D1DF
:104130000A2608244FF0100E01339D4221D91A7827
:104140002E2AF3D0222A07D07C2A05D0A2F12A07F2
:10415000052F30D82D2A2ED002F0C002802A41D05F
:10416000B4421ED800205F22671C0CEB040AFCB28C
:104170008AF81220062CDFD801338CF810409D42BB
:10418000DDD89CF81230202B45D088B319EA080FEF
:104190004FF0010018BF4FF002088CF81180BDE805
:1041A000F0870A2E20D099422CBF00230123DBB9CF
:1041B00018464B1EC0E7A2F13A07052FCCD9A2F151
:1041C0005B07022FC8D9A2F121075D2FC4D8B442E2
:1041D000E7D8A2F16107192F16D8203A4EEA08084D
:1041E000D2B2C1E70020A7E79CF81230202B12D0F2
:1041F0009CF8103001207E21312263448CF811009C
:104200009974DA74BDE8F087A2F14107192F98BFBD
:1042100049EA0E09A8E70020BDE8F087C146B0E7EB
:104220002DE9F047884605464FF062094FF07E0AB7
:104230000F7C01F11206032F28BF032702F0C6FFEF
:1042400080B23B1DDBB200F00F025C1E0009092AA0
:1042500002F1370198BF02F1300108EB0302E3B22B
:1042600091749F42EFD308EB07030021284683F89F
:1042700012A0FFF71BFC01212846FFF7F5FB0B22DC
:10428000034690B1047801463046A4B1DB7A1B079F
:10429000F1D404F00BFF0028EDD109F1FF3919F03A
:1042A000FF09C8D14846BDE8F0876878B0FA80F0C9
:1042B0004009BDE8F0870120BDE8F0872DE9F04F07
:1042C0000C788BB014F0700F01D004781CB1002072
:1042D0000BB0BDE8F08FD4689B4E0C34557CA6FB28
:1042E0000464C4F387040294AC0742D101274FF061
:1042F00000080E46079002F1120B41463046059326
:10430000C24603924446CDF81880C146CDF81080CD
:10431000FFF7CCFB756900213046C5F34F15FFF759
:10432000A3FB002800F088800378A3F1E502B2FA2D
:1043300082F2520973B36ABBBC4238BF00242E2BF1
:1043400025D022BBC17A0F2955D00B071FD4B9F154
:10435000000F40F0D8800B22594604F0A7FE002839
:10436000D8D1039B5B7CD80740F1E3800123049301
:10437000D0E7029C671CFFB2B9E70AF1FF3A5FFA87
:104380008AFA534503D1437B0699994244D04FF0B2
:104390000009BFE7002C08BFA846BC4201D2013487
:1043A000E4B2002BCBD1059A13469A058FD503F0C2
:1043B0000303013B012B8AD8002C08BFA846BC424E
:1043C00003D343E0DCB2A74240D900213046FFF7D7
:1043D0004BFB631C0028F5D1737823B177E7B368F2
:1043E0001B791C44E4B2A74230D93046FFF716F9D6
:1043F0000028F4D16BE7B9F1000FBED103F01F0A1A
:10440000029A524586D1590602D4DDF808A081E708
:10441000437B914692460693BAF1010F7FF47AAF3F
:10442000691C4B46039A304689B2FFF75BFD0028B2
:1044300008BF4FF000096DE77378002B7FF447AF9A
:10444000059A13469A057FF542AFB0E7049B33B156
:1044500003993046FFF7E4FE00283FF438AF013FF0
:10446000039A30465FFA87F908EB09054B46ADB26F
:104470002946FFF799FD00283FF429AF690130462E
:10448000FFF714FB00283FF422AF00213046FFF76E
:10449000EBFA044600283FF41AAF2022002104F072
:1044A0009BFE039F294A3B4653F8120F5968206030
:1044B000616019899B7A2181A3727B7C176803F064
:1044C00018032373002F38D00DF123020DF12601BC
:1044D00009A8B847BDF82410BDF826209DF8233060
:1044E0002182E2816373B26892F8243043F00103C1
:1044F00082F82430CDF800902A46059B3146079873
:10450000FFF72CFBE4E6BAF1010F7FF4E0AE441EA6
:1045100013460A30D90114F8012F41EA53038442AB
:1045200052FA83F3DBB2F5D11A46069B93427FF42D
:10453000CEAE059B1905DDD5C9E645F221232382C0
:1045400023836382CFE700BF4FECC44E3C27042097
:10455000F0B40878202803D111F8014F202CFBD0AB
:104560000E4624481160344616F8015B2F2D18BF03
:10457000002D22D0A5F12204E4B21D2C33D9012450
:10458000A5F120075F2F94BF00270127A74227D25C
:1045900005F0BF043C2C23D05C2D21D02E2DA6EBA2
:1045A0000104E0D0202DDED0D4603446966016F8A9
:1045B000015B2F2D18BF002DDCD1D1680139FE29F8
:1045C0000ED8202D01D02F2D05D114F8011F202940
:1045D000FBD02F29F9D01C601046F0BCFFF772BD4C
:1045E0000020F0BC704720FA04F404F0010484F0C9
:1045F0000104C5E701010031042A0BD90A2A05D9B3
:104600000C2A0CD801EB4202D088704701EB420221
:104610009088704701EB4202B2F801007047002019
:10462000704700BFF0B5037883B00D465BB113F05F
:1046300060040DD0012A06D92F22002301200A7020
:104640004B7003B0F0BD002318462B7003B0F0BDD3
:1046500021460192FFF72EF80028F4D021460346A8
:104660004FF0080C2646019A0FE0077B1CEA070F63
:1046700001D02034E4B2771CB646BA4210D0FEB264
:1046800005F80E4001310C290AD008291C780CD0FD
:10469000A4F141070133192FE7D9202CF2D0EAE722
:1046A00000233046AB5503B0F0BD202CF8D04FF0BE
:1046B000100C2E24DFE700BF2DE9F04F00238BB054
:1046C000047889468DF804308DF805308DF8063071
:1046D000002C48D0C3780546002B4BD0014601A8DA
:1046E0001646FFF7BDF800283DD0E878002850D0E6
:1046F0004E44C8464FF0010AA98801A8CAEB01013F
:1047000089B24901FFF7D2F968B3002101A8FFF788
:10471000ABF9074638B3C37A0F2B24D1037803F0E3
:104720001F039A451FD108F10D0B4446C8EB040244
:1047300039462846D2B2FFF75FFF631C3F22F0B133
:10474000B3421CD07E281C4698BFC2B25B4503F81A
:10475000012CEBD10AF1010AEA785FFA8AFA524594
:1047600014D39846C8E70023184689F800300BB0E8
:10477000BDE8F08FFFF756FF0BB0BDE8F08FC9EB37
:104780000400002323700BB0BDE8F08FC9EB0300D9
:10479000F7E74C46F5E700BFFFF78EBF012932D996
:1047A000C36999422FD870B5C379164605460C46A1
:1047B000202B19D0102B14D18369C1F307210222B9
:1047C00000F50D70194401F037FE50B1E1B230F838
:1047D0001130EA69934202D83360012070BD002095
:1047E00070BD4FF0FF3070BD8169022200F50D7081
:1047F00001EBD41101F020FE0028F2D004F07F017B
:1048000050F82130E5E74FF0FF30704701291DD9FE
:1048100038B5C369994206D8C37915460C46202B92
:1048200016D0102B01D0002038BD8369C1F30721B9
:1048300000F50D700322194401F0FEFD0346002827
:10484000F1D0E1B2012023F8115038BD00207047AB
:104850008169032200F50D7001EBD41101F0ECFD2C
:1048600003460028DFD004F07F01012043F82150E7
:1048700038BD00BF2DE9F041C46882B005460F463F
:104880008C42904635D20C4600260134EB6901AAD1
:1048900028469C42214608D936BBEC68012601AA6D
:1048A000284601349C422146F6D8A7421CD0FFF787
:1048B00075FF002818DBE8D0019B002BE5D106B17D
:1048C000EC606FF0704221462846FFF79FFF0646D6
:1048D00050B117B9C8F8004007E0394628462246CB
:1048E000FFF794FF0028F5D10026304602B0BDE85E
:1048F000F0810126C9E700BF70B5054682B00C46BD
:1049000009E0FFF783FF621E80B1EB689C42019CC7
:1049100038BFEA605EB101AA21462846FFF73EFF94
:10492000061E21464FF000022846EADA002002B0B7
:1049300070BD00BFF8B5044600234FF0FF300125DD
:1049400021601646A162C4F83812E560E37184F86C
:10495000243084F834322063C4F84002DAB1042AE7
:1049600001D90020F8BD04F124051A46194628464D
:1049700001F062FD6FF0704300F5DF7133441B01FD
:10498000CA180028EDD010790028EAD0CB5C5B066D
:10499000E7D1966801E004F124052846002231465B
:1049A00001F04AFD0028DCD0037C022BD9D1B0F8FD
:1049B0000B30B3F5007FD4D1427B0025531E012A72
:1049C0002271A57163710FD00125294600E01D46B3
:1049D00049006B1CC9B2DBB28A4204D0092BF6D164
:1049E000A5710020F8BDA571C78A27610FB9476A74
:1049F0002761B0F81110C3894A012181334402F2C2
:104A0000FF1203EB4701A361B0F8133001EB622200
:104A100021626261B3B1B61A40F6F472334423FAEC
:104A200005F56B1C9542E36111D94FF6F4739D4275
:104A30000AD9C26A20232262E371E7620120C4F826
:104A40003C72F8BD036AE6E71023E371F5E70C2337
:104A50000020E371F8BD00BFC07D7047407E704705
:104A600010B4046801232469A4465DF8044B604730
:104A7000807E7047704700BF10B504461C2102F0CD
:104A8000FBFC204610BD00BF10B50446043001F009
:104A9000B3FB0021A07D01F0ADFB0123237610BD07
:104AA00038B5051D04460121807D01F0A3FBFF21DF
:104AB000284601F06BFC284601F020FC00232376F9
:104AC00038BD00BF2DE9F0411F46037D05460E4667
:104AD000022B144622D02B68314628469B6C9847FF
:104AE00018B9287EA0B9BDE8F08102232E612B758C
:104AF000C7B1002601E0B74214D02B6821462846F2
:104B000001365B6C04F5007498470028F3D1E8E7A0
:104B10002846FFF7C5FF0020BDE8F08103698B42FE
:104B2000D9D1E5E72B696A7D1F442F6112B90120B5
:104B3000BDE8F0812B6828469B69BDE8F041184725
:104B4000F8B5037D012B20D0077E0546AFB12E1DA1
:104B50000824304601F0FEFBFF2804F1FF3308D0A3
:104B600013F0FF04F5D101240FB92B7E43B9204681
:104B7000F8BD0024002FF8D0F9E7FFF785FFE6E73E
:104B80002846FFF78DFF2046F8BD0020F8BD00BF86
:104B90002DE9F8431A4E0446884691463568071DAC
:104BA000ADB205E033689BB25B1BB3F5967F11DCB9
:104BB000384601F0CFFBFF286076F3D0FE280CD0FA
:104BC0001823E375207E18B12046FFF769FF002007
:104BD000BDE8F8831D23E375F4E74A4641463846AD
:104BE00001F0C4FB607610B12523E375EAE738468F
:104BF00001F0B0FB384601F0ADFB0120BDE8F883C1
:104C0000F0270420F8B50A4D0F46061D2C68A4B203
:104C100004E02B689BB21B1BBB4206DC304601F054
:104C200099FBFF28F5D10120F8BD0020F8BD00BF99
:104C3000F02704202DE9F04182B0037D05460F46A0
:104C40000192002B31D12B7E002B3DD0002F35D18E
:104C50002E1D47F040010DF1040802AC304601F072
:104C600095FB14F8011D304601F090FBA045F8D1EA
:104C7000002F30464FF000040CBF9521872101F032
:104C800085FB304601F066FB304601F063FB687639
:104C9000E3B20134C209092B8CBF002302F00103E7
:104CA000002BF1D102B0BDE8F08103689B69984701
:104CB0000028C8D1FF2002B0BDE8F0814FF4967102
:104CC0002846FFF79FFFC3E72846FFF7DDFEBDE755
:104CD000F8B500220D463A210646FFF7ABFF68B94A
:104CE000371D2C1D384601F035FB04F8010DA54297
:104CF000F8D1347E6CB901242046F8BD1223347EED
:104D0000F375002CF8D000243046FFF7C9FE20468A
:104D1000F8BD3046FFF7C4FE2046F8BD38B515464D
:104D200000220446FFF786FF40B11B23E375207E77
:104D300018B12046FFF7B4FE002038BD29461022E6
:104D40002046FFF725FF0028F1D0257E002DF4D066
:104D50002046FFF7A5FE284638BD00BF0A460921B8
:104D6000FFF7DCBF0A460A21FFF7D8BF0368244AD1
:104D70005B6B934230B585B02FD16A460921FFF7AE
:104D8000CDFF38B19DF8003013F0C00304D0402BA4
:104D900026D0002005B030BD9DF809409DF80630B2
:104DA0009DF8072004F003049DF80A0003F00303B4
:104DB00064009DF8051092009DF8085044EAD01058
:104DC00001F00F0142EA8323084443EA95130738B0
:104DD000013303FA00F005B030BD69469847D0E7CB
:104DE0009DF809309DF807105A1C9DF8080001F045
:104DF0003F0302EB034303EB0020800205B030BD0C
:104E00004D32000003680A4630B51B6C83B0104D6C
:104E10000446AB4218D1807E03284FF01201204691
:104E200018BF5202FFF706FF58B10C23207EE3752E
:104E300008B903B030BD2046FFF732FE002003B0B2
:104E400030BD012003B030BD01919847019AE3E7DE
:104E5000612F00002DE9F0411F46037D06460D46F7
:104E6000012B144619D029463046FFF7CBFF88B1F5
:104E7000012335613375A7B1002501E0AF4210D0A1
:104E80004FF400722146304601351444FFF780FE8E
:104E90000028F3D10020BDE8F08103698B42E2D104
:104EA000E9E73369727D1F44376112B90120BDE81B
:104EB000F081336830469B69BDE8F041184700BF78
:104EC00038B500220C210546FFF7B4FE28B10923AE
:104ED0002C7EEB755CB9204638BD2C7E14B90124BC
:104EE000204638BD2846FFF7DBFD204638BD0024AC
:104EF0002846FFF7D5FD204638BD00BF027D0021C2
:104F0000022A017505D0012A01D001207047FFF760
:104F1000D7BF0368DB6C184703680A4630B51B6CC3
:104F200083B0104D0446AB4218D1807E03284FF069
:104F30001901204618BF5202FFF77CFE58B10E231C
:104F4000207EE37508B903B030BD2046FFF7A8FD09
:104F5000002003B030BD012003B030BD019198475F
:104F6000019AE3E7612F00000368F0B55B6B85B041
:104F7000294F04460D461646BB422BD16A460921ED
:104F8000FFF7CCFE80B19DF80A305A0614D5A37EF7
:104F9000032B01D06D0276022A4620212046FFF71E
:104FA00049FED0B12623E375207E18B12046FFF7D5
:104FB00077FD002005B0F0BD03F03F039DF80B1016
:104FC000721C5B002A4343EAD1131342DFD027232C
:104FD000E375E9E769469847D4E732462121204640
:104FE000FFF728FE0028DDD1024626212046FFF7E4
:104FF00021FE0028D6D142F210712046FFF702FEB2
:1050000010B92823E375CFE7257E002DD2D02046A6
:10501000FFF746FD2846CDE74D32000070B54FF44E
:1050200016710546FFF7EEFD064658B91E232C7E85
:10503000EB750CB9204670BD34462846FFF730FDAD
:10504000204670BDFD21281D01F0A0F92C7E14B969
:105050003446204670BD2846FFF722FDEAE700BF30
:1050600070B5041D16460546204601F08FF94FF431
:1050700000723146204601F093F92046FF2101F0ED
:1050800085F92046FF2101F081F9204601F062F9FF
:1050900000F01F036876052B09D02023287EEB75CE
:1050A00000B970BD2846FFF7FBFC002070BD012051
:1050B00070BD00BF38B50D464FF416710446FFF7BA
:1050C000A1FD40B92423E375207E18B12046FFF7E7
:1050D000E7FC002038BD2A46FC212046FFF7C0FF30
:1050E0000028F1D038BD00BF036870B51B6C82B0DA
:1050F000154D04461646AB4222D1807E0328204639
:1051000018BF49020A461821FFF794FD48B10D2344
:10511000E375207E18B12046FFF7C2FC002002B0E4
:1051200070BD3246FE212046FFF79AFF0028F0D0DE
:10513000257E002DF3D02046FFF7B2FC2846EEE78F
:10514000019198470199D9E7612F000010B4447D7F
:1051500034B904680123246AA4465DF8044B60470F
:105160005DF8044BFFF7C0BF084B0021084A09480F
:1051700010B499631C6B146012685DF8044B1A63D9
:105180009A6C22F081029A640170704700002C40F2
:105190001827042030270420034B04481B6B1840B9
:1051A000B0FA80F04009704700002C4001000F0069
:1051B000024B586A00F00100704700BF00002C400D
:1051C000034B586A80F08070C0F30060704700BFE6
:1051D00000002C40014B1878704700BF3027042096
:1051E000034B586A80F40060C0F3C020704700BFD2
:1051F00000002C40034B586A80F48060C0F380208C
:10520000704700BF00002C40034B04481B6B184044
:10521000B0FA80F04009704700002C4002007F1176
:105220004FF47A722B4B2C4902FB00F0496AD3F8F9
:1052300000212A4BC1F3C22102F03F020131A3FB3E
:105240000223F0B49B08264DB5FBF3F5B5FBF1F551
:10525000B0EB151F38D2012201E0FF2A05D8520019
:105260001301B5FBF3F39842F7D351080F02B5FBD6
:10527000F2F398422BD25400012100E01C464E1C50
:10528000B5FBF4F3984202EB04031BD2102E314617
:10529000F4D1F0234FF47A72124E134902FB04F456
:1052A00012483246B5FBF4F50D60F16A084040F44F
:1052B000602040EA07011943F162536A1B07FCD5DD
:1052C000F0BC70470B01E5E700270122CFE7144649
:1052D0000023DFE700800D4000C00F40ABAAAAAA60
:1052E00000EC695E00002C40342704200F00F0FF22
:1052F000014B1878704700BF7C090020014B1868EB
:10530000704700BF1827042030B4054C0D460FCC61
:10531000286001206960AA60EB6030BC704700BF64
:10532000F426042030B4054C0D460FCC2860012033
:105330006960AA60EB6030BC704700BF2027042082
:10534000024B01201B680B60704700BF0C27042034
:10535000704700BFF8B50546074F01F037FF064616
:1053600004E001F033FF801BB84203D8A84704468D
:105370000028F6D12046F8BD40420F002DE9F0414B
:10538000DFF8408005460E4FC8F8000001F01EFF10
:10539000064606E001F01AFF801BB8420AD803F067
:1053A000D3FAA84704460028F4D1C8F800002046E4
:1053B000BDE8F08100232046C8F80030BDE8F08148
:1053C00040420F000427042010B504460C2102F0CF
:1053D00053F8204610BD00BF0F4B002247F2B80122
:1053E00041F2B800C3F8CC21C3F8D021C3F8BC21E6
:1053F000C3F8C021C3F8C421C3F8C821C3F8BC1343
:10540000C3F8C013C3F8AC13C3F8B003C3F8B413A4
:10541000C3F8B813704700BF00801F40054B1B78CE
:1054200033B1054B1B78002B14BF032002207047BB
:1054300001207047F02604200827042038B50446D0
:1054400014480D46FFF786FF08BB134BA1029D6071
:1054500007D5996CE2B221F0FF019964996C0A4377
:105460009A6424F0FF040C4D0C48EC60FFF772FFC7
:1054700068B92A6B0A4B1A601A682A631A68D2073D
:1054800005D51B6813F4702F01D1012038BD002011
:1054900038BD00BFA136000000002C408936000056
:1054A0001827042008B5074B07481968FFF7C6FFFF
:1054B00030B1064B186980F48070C0F3002008BD3D
:1054C000012008BD1027042000001A0D00002C4008
:1054D00008B5044B04481968FFF7B0FF08B1034B47
:1054E000186908BD1027042000001A0D00002C4088
:1054F000144B70B50E4684B01968FFF79FFFF0B1EA
:10550000114906F10F0500230A6900924C690194C4
:105510008C690294C969039101E054F8102C03F0DE
:1055200003010133C90023F003040F2B22FA01F217
:1055300004A905F8012D0C44EFD10023F37304B046
:1055400070BD00BF1027042000002C40054B1868D8
:1055500010F0020005D01B6803481840B0FA80F034
:10556000400970471827042000007F11F8B512F099
:10557000030418BF0124002B08BF44F0010444B108
:105580001E4925201E4B4FF4FD7208701A60002042
:10559000F8BD06461B481D460F461446FFF7EEFEB3
:1055A00010BB2B04184A194D4FF0010E1A40184930
:1055B00085F800E0174B42F400720860164D174959
:1055C0001C605A609D630B78B3B979023046FFF7CF
:1055D00035FF0028DBD01248FFF7D0FE0028D6D1D7
:1055E000BDE8F840FFF7B2BF04490A20044B40F27F
:1055F000FD1208701A60CAE73946E7E77C09002007
:1056000038270420953900000000FF1F30270420B0
:105610001827042000002C4002007F1108270420D6
:10562000C5360000194970B40B7813F0C00311D0CF
:10563000402B02D0002070BC70474B7ACC795A1CAA
:10564000087A04F03F0302EB034303EB002070BC35
:10565000800270474D7A8B79CA7905F00305887A04
:1056600003F003036D004C7992000E7A45EAD010E6
:1056700004F00F0142EA8323084443EA96130738F3
:10568000013370BC03FA00F0704700BF20270420EC
:10569000037ADB0703D50E4B1B6893B118470D4BFC
:1056A0001B7833B90C4B586A80F08070C0F30060EF
:1056B0007047094B09481B6B1840B0FA80F040094D
:1056C0007047074B18780028F2D0FFF7EBBE00BFF9
:1056D000042704201427042000002C4002007F111E
:1056E0001C27042070B51646427A0D466ABB304A24
:1056F000937A03F0400000F0FF0498B12D4B1B7823
:105700000BB96D02760229462B48FFF797FE044637
:1057100018BB2A490F202A4B40F2F32208701A6066
:10572000204670BD03F03F03D17A721C5B002A4310
:1057300043EAD1131342E1D020492720204B40F205
:10574000EB22087020461A6070BD03689B69984779
:1057500004460028CBD1204670BD31461948FFF7DA
:105760006DFE044638B915491020154B40F2F6225B
:1057700008701A60D4E700211348FFF75FFE044663
:1057800038B90E4911200E4B40F2F92208701A6008
:10579000C6E70E48FFF7DEFD0028C1D007492820E4
:1057A000074B4FF43F72087000241A60B8E700BF3F
:1057B000202704200827042000001A207C0900204C
:1057C0003827042000001A2100001B26953900000C
:1057D00010B50E480024FFF7BDFD0D490D4A0E4BD4
:1057E0000C70116B19601968116318B91A680B4BAA
:1057F000134043B10A491F240A4B40F28122002082
:105800000C701A6010BD012010BD00BFF9360000F9
:105810001427042000002C401827042000007F11CA
:105820007C0900203827042038B5184C002118487E
:10583000A36A23F48033A362FFF700FE054640B954
:1058400014490920144B40F2422208701A6028467D
:1058500038BD1248FFF792FD70B9636A9B07F6D511
:10586000616B2846A36AE26A23F4803342F08062C7
:10587000E2626163A36238BD06490A20064B40F22A
:105880004622002508701A60284638BD00002C40CA
:105890000000DB0C7C09002038270420B136000012
:1058A00070B51E4E0D463378002B31D11C4B5A6A11
:1058B000D10507D49A6A22F480329A629A6A42F435
:1058C00000329A62164C1748A36A43F48033A362ED
:1058D000FFF740FD98B920462B1F05F5FE74426A7C
:1058E0005205FCD503F1400153F8042F994202629E
:1058F000FAD18C420B46F2D10120307070BD0A49BA
:1059000021240A4B40F2F73200200C701A6070BD5F
:10591000FFF75EFF0028C9D170BD00BF1427042027
:1059200000002C40E53600007C09002038270420C8
:1059300010B514480C46FFF721FDC8B9124B4FF4BF
:10594000007012499A6A22F480329A6258600B7889
:1059500063B961020E48FFF771FD30B90D490E249D
:105960000D4B40F26B420C701A6010BD2146F1E7FE
:1059700008490A20084B40F25F42087000201A6074
:1059800010BD00BF9539000000002C4008270420FE
:1059900020003A197C09002038270420F8B5064673
:1059A000007A0C461546C0071F4613D483B10F4436
:1059B00001E0BC420CD033682A4621463046DB6900
:1059C00005F50075013498470028F2D10020F8BD94
:1059D0000120F8BD900712D0002BF9D00F4401E050
:1059E000A742F5D033682A4621463046DB6905F5E3
:1059F0000075013498470028F2D10020F8BD064810
:105A0000FFF7B4FD0028E3D104490E24044B40F213
:105A100051420C701A60F8BD27003A197C09002029
:105A20003827042070B5037A1546ADF5007D0E4683
:105A3000DA0719D5AB0706D029464FF4007268463D
:105A40006D4601F07DFC2A46314601232148FFF7CF
:105A50008DFD30B920490D24204B40F219420C70C5
:105A60001A600DF5007D70BD1D4B04461B78ABB967
:105A7000637A022B08D0236820469B69984798B91F
:105A800000200DF5007D70BD63689E4216D023682E
:105A900020469B6998470028F2D005E0FFF798FE62
:105AA0000028E5D10020ECE72368314620469B6CB6
:105AB00098470028E4D00223666063722368294671
:105AC00020465B6C98470028DAD063680133636036
:105AD000C7E700BF01003A187C09002038270420DE
:105AE00014270420F8B50646007A0C461546C00770
:105AF0001F4613D483B10F4401E0BC420CD033687D
:105B00002A4621463046DB6805F500750134984782
:105B10000028F2D10020F8BD0120F8BD900712D076
:105B2000002BF9D00F4401E0A742F5D033682A4694
:105B300021463046DB6805F500750134984700289A
:105B4000F2D10020F8BD0648FFF710FD0028E3D190
:105B500004490C24044B4FF464720C701A60F8BDB5
:105B600037003A127C09002038270420F8B5054692
:105B70001B480C46FFF7EEFB40B11A490A201A4BAE
:105B800040F29D12087000201A60F8BD174A0127E4
:105B9000174B29461770174E174D184A30601C6076
:105BA00017485D609A63FFF749FC38B90D49042432
:105BB0000D4B4FF4D2720C701A60F8BD1148FFF70C
:105BC000DDFB18B9FFF7C2FC00B1F8BD054925207F
:105BD000054B40F2A712087000201A60F8BD00BF04
:105BE000953900007C090020382704203027042044
:105BF00000002C40182704204000010002007F1103
:105C000011003A06C53600002DE9F043B74A0023DB
:105C1000B74D0524017291B02B704372D2F8000188
:105C2000B44F40F08000B44EDFF834833B703370E3
:105C300088F80030C2F80001D2F80001AF4B20F024
:105C40003F00AF49C2F80001D2F8000140F018004F
:105C5000C2F80001D2F8000120F08000C2F8000173
:105C6000D3F88020A74842F00C02C3F880205A6A7B
:105C700022F460525A62DA6942F48032DA615A6A76
:105C800042F400625A620246C1F8CC41C1F8D041E8
:105C9000C1F8BC41C1F8C041C1F8C441C1F8C84114
:105CA000816C994B41F000418164C16A0B43C3622E
:105CB000D36A944CD901FBD44FF4C870FFF7B0FA03
:105CC000FFF78AFB9149924B924A6163C3F8F8212E
:105CD000914B6020914A4FF4804118702346116027
:105CE000E26A42F00062E262D96A11F00061FBD11F
:105CF0000846FFF7A3FB044600284DD003244FF4C9
:105D0000D5718748FFF79AFB00285CD1013CF6D19A
:105D100098F80030834C002B08BF4FF4401401F07A
:105D200055FADFF84082814600217F48FFF786FB65
:105D300050B917217D4B40F2A722002429701A6028
:105D4000204611B0BDE8F08321467948FFF776FB85
:105D50000028EED001F03AFAC9EB0000694A40454C
:105D6000E7D81369002BDFDA1169724B19601369E8
:105D70005A0001D50123337000216F48FFF75EFB05
:105D8000044698B90221694B4FF42C7220462970C1
:105D90001A6011B0BDE8F0830121644B40F29622F5
:105DA000204629701A6011B0BDE8F08300216348D5
:105DB000FFF744FB0446C0B903215C4B40F2B32219
:105DC00029701A60BCE74F4B1B69B3F5D57F07D02C
:105DD0000621564B4FF42772002429701A60AFE752
:105DE0000123504C88F8003099E7464E544B3269F5
:105DF000DFF87481134053495348C8F80030FFF767
:105E000077FB044630B90721484B4FF42E722970B6
:105E10001A6095E74D494E48FFF76AFB044630B9D2
:105E20000821424B40F2BB2229701A6088E7D8F85B
:105E300000104848FFF702FB044630B905213B4BF0
:105E400040F2BE2229701A607AE7D8F8001036486E
:105E5000FFF7F4FA38B91421344B40F2C22200247F
:105E600029701A606CE702213B48FFF7E7FA044605
:105E70000028F0D0B36A4FF010126FF07F406946EF
:105E800023F00603B362B36A43F00203B3627264A1
:105E9000FFF76CFE18B19DF80D309B0716D446F243
:105EA000A810174B0522C3F8CC21C3F8D021C3F8A2
:105EB000BC21C3F8C021C3F8C421C3F8C821FFF72F
:105EC000AFF9FFF789FA01233B7039E769462348A8
:105ED000FFF74CFE0028E2D09DF8103003F00F03CE
:105EE000012BDCD14CF25030DBE700BF00800D40CD
:105EF0007C0900201C2704200827042000C00F4034
:105F000000801F4000002C40008000010B007F112A
:105F1000002C0420593600006EE400E00CE100E0A3
:105F200000001A080000304000001A37382704200B
:105F3000000002290C2704200000090200001A03B7
:105F40000000FFFF2027042000000909F426042098
:105F50000000090A00001B0700001A06F1FFFF807D
:105F6000F026042040420F001027042038B5274BAC
:105F70000D465A6A94050DD49A6A22F480329A62C8
:105F800072B69A6A42F400329A629A6A42F4803295
:105F90009A6262B61E48FFF7DDF900282DD12B1F4B
:105FA0001A4905F5FE754A6A1005FCD503F1400053
:105FB0000A6A164C43F8042F9842F9D185420346E9
:105FC000F1D11448FFF7C6F970B9226B124B1A6071
:105FD0001A6822631A68920717D51B680F48184081
:105FE000B0FA80F0400938BD0D491D200D4B40F23C
:105FF0004E32087000201A6038BD09491A24094B36
:1060000040F2433200200C701A6038BD00002C4072
:10601000D1360000F93600001827042000007F1157
:106020007C0900203827042010B514480C46FFF7DF
:10603000A5F9C8B9124B4FF4007012499A6A42F49C
:1060400080329A6258600B7863B961020E48FFF79C
:10605000F5F930B90D490C240D4B4FF46B720C70EF
:106060001A6010BD2146F1E708490A20084B4FF499
:106070006872087000201A6010BD00BF95390000DA
:1060800000002C400827042030003A127C09002030
:106090003827042070B5037AADF5007D1546DC077E
:1060A00011D5930720D0012329486A46FFF75EFAED
:1060B00000B3694628464FF4007201F041F901200F
:1060C0000DF5007D70BD234B04460E461B7833BB97
:1060D000637A012B19D0236820469B69984720BB1F
:1060E00000200DF5007D70BD01231948FFF73EFA31
:1060F0000028E4D10B201849184B40F26132087097
:1061000000201A600DF5007D70BD63689E4215D0B9
:10611000236820469B6998470028E1D005E0FFF7F7
:1061200057FB0028D4D10020DBE731462046FFF79B
:106130007BFF0028D4D00123666063722946204685
:10614000FFF714FF0028CBD0636801336360D9E701
:1061500011003A11142704207C090020382704205C
:1061600070B5144A00250E4645722946936A1248B6
:1061700023F480339362FFF761F9044688B10EB9C6
:10618000204670BD0D48FFF7F9F80028F8D02C46DE
:106190000B490A200B4B40F2C632087020461A60A9
:1061A00070BD07490920074B40F2C23208702046F3
:1061B0001A6070BD00002C400000DB0CB1360000FE
:1061C0007C09002038270420094B1B7810B50446B1
:1061D0004BB9637A0BB9012010BD20460121BDE8FF
:1061E0001040FFF7BDBFFFF7F3FA0028F1D110BD53
:1061F0001427042001F050B80368416830B4DA7CF9
:106200008468002A28D072B6DA7CD50706D53348D0
:106210005A6905682A409A620260DA7C900706D5BE
:106220002F489A6905682A40DA620260DA7C5507CD
:1062300006D52C48DA6905682A401A630260DA7CC0
:10624000100706D528481A6A05682A405A63026072
:10625000DA7CD2062BD462B69A688A422ED0234AC0
:10626000996092692248C2F30115C2F3826250F824
:1062700025000132B0FBF2F0B9B1B0FBF1F242B14E
:10628000B0FBF2F0884288BF0132B2F5817F17D3AC
:10629000184ADA601B680025032001211D6158623D
:1062A0001A641C66196130BC70470246E7E7124861
:1062B0005A6A05682A409A630260CCE7DA68E9E71F
:1062C000022A98BF0022E4D9023A5008010442EAA7
:1062D000002201F47F010A43DBE700BF80E100E018
:1062E00084E100E088E100E08CE100E000C00F40C4
:1062F00000000020FF7F7F0090E100E00268D37C77
:10630000E3B1D80703D50E4B916A1960D37C990786
:1063100003D50C4BD16A1960D37C580703D50A4BBF
:10632000116B1960D37C190703D5084B516B1960A9
:10633000D37CDB0602D5926B054B1A60704700BF19
:1063400000E100E004E100E008E100E00CE100E031
:1063500010E100E00268FF2312685366D36D13F466
:10636000F81FFBD0506FC0B2704700BF70B50C462D
:1063700016460546FF21204602F02EFF28683346C8
:1063800022462146FDF712F9002070BD03681A6805
:106390005166D36D13F4F81FFBD0536F704700BFE5
:1063A00030B5551EADF5017D1346B5F5007F10D310
:1063B00062B10268C818126811F8013B5366D36DC8
:1063C00013F4F81FFBD08142536FF5D10DF5017D19
:1063D00030BD14460546684600F0B2FF23466A46C3
:1063E00069462868FDF7E2F80DF5017D30BD00BF74
:1063F00070B50446406804F110060368E16832464F
:10640000DB69984740B1237805469A0707D423F003
:1064100001032846237070BD0025284670BD6068C2
:106420003246A168E66803683144DB699847002872
:10643000F2D02378EBE700BFF8B54368FBB1C3683F
:10644000044615460F468B420ED00378DA0712D465
:106450006B0716D504F11006002205F0030530463F
:10646000E76015432570F8BD10F9102B05F0030502
:1064700015432570F8BDFFF7BBFF0028E8D10020C9
:10648000F8BD606804F11006394603683246DB68DF
:1064900098470028E0D1F2E70378DB0701D4012018
:1064A0007047FFF7A5BF00BF10B4EFF3108272B6BC
:1064B000437F33B9017F012908D0032910D001237C
:1064C000437702B962B65DF8044B7047114C2168FE
:1064D000A1B1114943610B68086083615861EEE71F
:1064E0000E4C216881B10E4943610B6808608361DD
:1064F00058610C4B4FF080511960E0E7064B416149
:10650000816120601860DAE7054B4161816120609C
:106510001860EEE74C270420482704204027042079
:106520004427042004ED00E070B5EFF3108172B64B
:106530000C4C23688BB10C4E00255A6922607AB14D
:10654000956101B962B65D7718469B689847EFF38D
:10655000108172B62368002BEFD101B962B670BD0D
:106560003260EEE74027042044270420FFF7DCBF19
:10657000044A054B1168054A19601368013313601A
:10658000704700BF041000E0E8270420F027042033
:10659000B0F84630B0F848209BB292B2934202D293
:1065A000501EC01A7047406B01381044C01A704723
:1065B00072B6B0F84A30B0F84C2099B293B2994212
:1065C00001D2826B11440269CB1AD06AC0F3026017
:1065D000184462B6704700BFB0F84A20B0F84C309B
:1065E00092B29BB29A4270B428D00133846BA3421A
:1065F00017D2016B9EB28B4218D2016AC95CC9B234
:10660000856DA0F84C60B5B19A4238BF1219D31A03
:10661000C26B93420FD8C36D0846C5F8883070BC72
:1066200070470026016B33468B42E6D3591A456A00
:10663000695CC9B2E4E7084670BC704772B6B0F84E
:106640004A1089B28A4202D062B60A46CDE703698F
:10665000DA6A12F0E06F04D0D869C0F3090062B6BC
:10666000DDE74FF0FF30FAE790F8443043B110B562
:10667000044602F069F994F84430002BF9D110BDBA
:10668000704700BFB0F84A20B0F84C3092B29BB2CD
:106690009A4210D00133816B026B8B4228BF0023DA
:1066A000934204D39B1A426AD05CC0B27047026A1C
:1066B000D05CC0B2704772B6B0F84A1089B28A4254
:1066C00001D062B6E6E70369DA6A12F0E06F11D032
:1066D000DB690021026AC3F3090310B40124A0F8A6
:1066E0004A40A0F84C10D9B2517062B618465DF815
:1066F000044B70474FF0FF3362B61846704700BF37
:10670000EFF31380B8B9EFF310834BB9EFF30582C1
:106710003AB94FF48073EFF3118050B1984208D228
:1067200070470F2AF7D9054BD35CEFF3118000288F
:10673000F4D1184670474FF0FF30F1E7F0E300E086
:10674000F8B5036D04460E4613B1426DC3F88420BC
:10675000B4F84650636BADB201359D4249D2AFB239
:10676000B4F848309BB2AB4220D1FFF7C9FF636950
:10677000B3F85A3098422DDC21694B691B02EFD5E2
:10678000B4F84830626B9BB20133934227D2E26A7D
:1067900098B2934228D2E269D35CDBB2CB61A4F811
:1067A0004800B4F848309BB2AB42DED0E36A9D4269
:1067B00022D3ED1AF6B2A36A5E5572B601202269A1
:1067C00084F84400A4F84670936943F4000393618D
:1067D00062B6F8BDFF28C3DD02F0B6F8C0E70020BE
:1067E000E26A03469342D6D39B1AA26AD35CDBB219
:1067F000D4E700273D46B3E7F6B2E3695E55DCE730
:10680000FFF79EBF0269536913F4401FF0B542D0F1
:10681000D36AC3F30265002D3AD0B0F84A70B0F8DD
:106820004CE0BFB21FFA8EFE06E0026AD65402693F
:106830006B1E13F0FF051AD0D1697B1C866BB0F874
:106840004C40C1F30901B34228BF0023A4B2A342C4
:10685000EED0026BCEB21F469342A3EB0204E4D308
:10686000436A1E556B1E026913F0FF05E4D1BBB2EB
:10687000816DA0F84A3059B1774569D2836BCEEB70
:1068800003031F44036C9F4202D3C36DC1F88430DD
:106890005369DC024BD4D2F818E01EF4000F02D08A
:1068A0005369190212D41EF4800F3ED053695B0263
:1068B0003CD50021036D80F8441013B1416DC3F83D
